:020000040800F2
:10000000081500202D0100087D1400087F14000849
:1000100083140008871400088B14000800000000F7
:100020000000000000000000000000008F14000825
:100030009114000800000000430100089314000818
:100040004701000847010008470100084701000870
:100050004701000847010008470100084701000860
:100060004701000847010008470100084701000850
:100070004701000847010008470100084701000840
:100080004701000847010008470100084701000830
:100090004701000847010008470100084701000820
:1000A0004701000847010008470100084701000810
:1000B0004701000847010008470100084701000800
:1000C00047010008470100084701000847010008F0
:1000D00047010008470100084701000847010008E0
:1000E00047010008470100084701000847010008D0
:1000F00047010008470100084701000847010008C0
:1001000047010008470100084701000847010008AF
:1001100047010008DFF810D001F036FA0048004728
:1001200079130008AFF300800815002006488047C7
:1001300006480047FEE7FEE7FEE7FEE7FEE7FEE7CC
:10014000FEE7FEE7FEE7FEE74F02000815010008A4
:100150000FB500200290019000908E48006840F496
:1001600080308C49086000BF8A480068C0F3404076
:1001700001900098401C00909DF8040018B9009868
:10018000B0F5005FF0D183480068C0F340400190B3
:100190009DF8040018B98048804908600FBD804868
:1001A000006820F007007E4908600846006840F0BB
:1001B0000300086077484068764948600846406810
:1001C00040F4005048600846406840F4A060486031
:1001D00008464068734908406E4948600846006C0C
:1001E00020F001000864084640680390039840F43A
:1001F00080300390039840F4003003906A490398DC
:1002000008430390634903984860029808640846CD
:10021000006840F08070086000BF5E48006800F031
:1002200000700028F9D05B48406820F0030059496D
:1002300048600846406840F00200486000BF5548EA
:10024000406800F00C000828F9D100BFA6E710B5FF
:100250005648006840F47000544908604D480068F2
:1002600040F001004B49086008464068504908408A
:1002700048494860084600684E49084045490860BA
:100280000846006820F48020086008464068454918
:100290000840404948604FF46050C862002008643C
:1002A000454888600846C06940F08050C8610846EB
:1002B000C06920F08050C8613948006840F0800073
:1002C000374908600846006820F010000860FFF712
:1002D0003FFF4FF0006035498039086010BD10B510
:1002E0000021002000222B4B5B6803F00C0121B1A0
:1002F000042906D008293CD107E0274B274C23606E
:100300003BE0254B254C236037E0224B5B68264CB5
:1003100003EA04001F4B5B6803F4803200F00063C3
:100320001BB9022303EB904004E04FF4F873C3EBD6
:100330009043581C72B9174B1B6C03F0010323B197
:100340001E4B4343154C236012E0134B4343134CA5
:1003500023600DE00F4B5B6803F4003323B1174BB0
:1003600043430E4C236003E00B4B43430B4C236091
:1003700003E0094B094C236000BF00BF054B5B68DD
:10038000C3F303130E4CE15C044B1B68CB40034CDE
:10039000236010BD0010024000127A00000000200F
:1003A00000200240FFFFC0F700003C0888ED00E09D
:1003B0000CC07FF8FFFFF6FE00009F0400093D001F
:1003C000CA15000810B50446FE48844203D18020B7
:1003D00000F077FF15E0FC48844203D1801500F05F
:1003E00070FF0EE0F948844203D1401500F069FF28
:1003F00007E0F748844203D1001500F062FF00E0F7
:1004000010BD00BFFCE730B501460020002275E0BA
:100410000123834003EA0102002A6ED00C2808D988
:10042000E84B1B6845000224AC402343E54C2360A5
:1004300007E0E44B1B6845000324AC402343E14C38
:10044000236000F008035BB1DE4B24331B684407D4
:10045000E50E0F24AC40A343DA4C243423600AE0B9
:10046000D84B20331B684407E50E0F24AC40A34350
:10047000D44C20342360D34B1B1D1B6801248440C3
:10048000A343D04C241D23600F2801D00D280AD18E
:10049000CC4B0C331B6845000124AC402343C94CB2
:1004A0000C34236016E00E280AD1C64B0C331B68AF
:1004B00045000224AC402343C24C0C34236009E0C5
:1004C000C04B0C331B6845000324AC40A343BD4C18
:1004D0000C342360BB4B08331B6801248440234346
:1004E000B84C08342360B74B2C331B6845000424F8
:1004F000AC402343B34C2C342360401C41FA00F33E
:10050000002B85D130BD30B501460020002268E0C7
:100510000123834003EA0102002A61D0032801D0AD
:10052000042808D1A84B1B6845000224AC40234393
:10053000A54C236007E0A44B1B6845000324AC4096
:100540002343A14C236000F008035BB19E4B24338E
:100550001B684407E50E0F24AC40A3439A4C243497
:1005600023600AE0984B20331B684407E50E0F24F4
:10057000AC40A343944C20342360934B1B1D1C6858
:10058000012383409C43904B1B1D1C6004280AD10F
:100590008D4B0C331B6845000124AC4023438A4C2F
:1005A0000C34236009E0884B0C331B68450003249E
:1005B000AC40A343844C0C342360834B08331C6849
:1005C000012383401C43804B08331C607E4B2C333B
:1005D0001B6845000424AC4023437B4C2C3423602F
:1005E000401C41FA00F3002B92D130BD30B50146DA
:1005F000002000223DE00123834003EA0102BAB358
:10060000724B1B6845000324AC4023436F4C2360AE
:100610006E4B24331B684407E50E0F24AC40A34304
:100620006A4C24342360694B1B1D1C6801238340E2
:100630009C43664B1B1D1C60644B0C331B684500C0
:100640000324AC40A343614C0C342360231F1C687B
:10065000012383401C435D4B08331C605B4B2C33F0
:100660001B6845000424AC402343584C2C342360C1
:10067000401C41FA00F3002BBDD130BD30B501461E
:100680000020002256E00123834003EA0102002AF1
:100690004FD040B94E4B1B6845000024AC4023436B
:1006A0004B4C236007E04A4B1B6845000324AC40D9
:1006B0002343474C236000F008034BB1444B5B6A73
:1006C0004407E50E0F24AC40A343414C636208E0AD
:1006D0003F4B1B6A4407E50E0F24AC40A3433C4C40
:1006E00023623B4B5C68012383409C43384B5C6036
:1006F00038B9DB6845000224AC402343344CE36046
:1007000009E00C2807D3324BDB6845000324AC40DA
:10071000A3432F4CE3602E4B9C68012383401C4372
:100720002B4B9C60DB6A45000424AC402343284CDF
:10073000E362401C41FA00F3002BA4D130BD70B538
:10074000014600220020002313E00124844004EA33
:1007500001036BB18407E50EFF2404FA05F21D4C7A
:10076000850854F8254094431A4D860845F82640DC
:10077000401C41FA00F4002CE7D170BD00B54FF6E3
:10078000FF70FFF740FE4FF6FF70FFF7BCFE4FF61D
:10079000FF70FFF72BFF4FF6FF70FFF76FFF00BDF5
:1007A00030B50346002002F00804BCB1586A540773
:1007B000E50E0F24AC40A0435407E40E01FA04F404
:1007C000204309E00034024000380240003C02406F
:1007D000004002400400014058620BE0186A5407D0
:1007E000E50E0F24AC40A0435407E40E01FA04F4D4
:1007F0002043186230BD70B50346002000241868FD
:1008000001F0030456000325B540A843550004FA3F
:1008100005F528431860012905D0112903D00229C4
:1008200001D0122908D1586801259540A843C1F389
:10083000001595402843586070BD30B50B46002127
:10084000C16855000324AC40A143540003FA04F4EA
:100850002143C16030BD10B50B46002181680124E1
:100860009440A14303FA02F42143816010BD30B5E6
:100870000B460021C16A55000324AC40A14354003B
:1008800003FA04F42143C16230BDF0B506460C46BC
:10089000002500271FE00121A940206800EA010788
:1008A000C7B12A4630466169FFF77AFF2A463046CB
:1008B0006168FFF7A0FF2A463046A168FFF7BDFF39
:1008C0002A463046E168FFF7C6FF2A4630462169CE
:1008D000FFF7CDFF6D1C2068E8400028DBD1F0BD9C
:1008E00010B5012000F0F7FC10BD4FF6FF7101605C
:1008F0000021C16041600F214161002181600161DF
:10090000704702461069084008B101207047002076
:10091000FCE70146086980B270470246506908400A
:1009200008B1012070470020FCE70146486980B209
:10093000704781617047816270470A461304836182
:100940007047816270474161704742694A40426125
:100950007047002241F48032C261C161C261C26944
:10096000C2697047F0B503461546002200200BB956
:10097000CA4E08E0012B01D1C94E04E0022B01D17F
:10098000C84E00E0C84E344601F0080666B101F0DA
:100990000702606A97000F26BE40B043960005FA32
:1009A00006F6304360620BE001F00702206A970010
:1009B0000F26BE40B043960005FA06F6304320628B
:1009C000F0BD10B5B94A831052F823208307DC0E1E
:1009D0003F23A3409A43B54B841043F824201A4682
:1009E000831052F823208307DB0E01FA03F31A4326
:1009F000AE4B841043F8242010BD0A460021AB4BB7
:100A00001B1F1B68C3F30B010AB1014300E08143C4
:100A1000A64B1B1F1960704702460020092A11D1FE
:100A2000A24B1B1F186820F40070112902D140F45A
:100A3000007003E020F0F00040EA01109B4B1B1F08
:100A4000186011E0082A0FD1984B1B1F186820F47A
:100A50008070102902D140F4807002E020F00F0075
:100A60000843924B1B1F186070479049091F496942
:100A700081438E4A121F516170478C49091F496991
:100A800001438A4A121F516170478849091F086251
:100A9000704710B5814B984201D100230AE0804B8A
:100AA000984201D1012305E07E4B984201D10223F7
:100AB00000E003231A4602F00203ABB9774B9842D9
:100AC00007D17A4B1B1F9B690B43784C241FA361F2
:100AD0001FE0734B98421CD1744B1B1F9B690B4347
:100AE000724C241FA36114E06E4B984207D16F4BE8
:100AF0001B1FDB690B436D4C241FE36109E06A4B4C
:100B0000984206D1694B1B1FDB690B43674C241FBE
:100B1000E36110BD10B5614B984201D100230AE09A
:100B20005F4B984201D1012305E05E4B984201D111
:100B3000022300E003231A4602F00203ABB9574B2D
:100B4000984207D1594B1B1F9B698B43574C241F5D
:100B5000A3611FE0524B98421CD1544B1B1F9B6951
:100B60008B43524C241FA36114E04E4B984207D193
:100B70004E4B1B1FDB698B434C4C241FE36109E088
:100B8000494B984206D1494B1B1FDB698B43474CAD
:100B9000241FE36110BD10B5404B984201D10023E2
:100BA0000AE03F4B984201D1012305E03D4B9842BA
:100BB00001D1022300E003231A4602F00203ABB97D
:100BC000364B984207D1394B1B1F5B6A0B43374C9E
:100BD000241F63621FE0324B98421CD1334B1B1F12
:100BE0005B6A0B43314C241F636214E02D4B984227
:100BF00007D12E4B1B1F9B6A0B432C4C241FA36257
:100C000009E0294B984206D1284B1B1F9B6A0B43D6
:100C1000264C241FA36210BD10B5204B984201D171
:100C200000230AE01E4B984201D1012305E01D4B31
:100C3000984201D1022300E003231A4602F0020386
:100C4000ABB9164B984207D1184B1B1F5B6A8B43FD
:100C5000164C241F63621FE0114B98421CD1134BAA
:100C60001B1F5B6A8B43114C241F636214E00D4B06
:100C7000984207D10D4B1B1F9B6A8B430B4C241FC3
:100C8000A36209E0084B984206D1084B1B1F9B6AE0
:100C90008B43064C241FA36210BD000000340240A9
:100CA00000380240003C0240004002400400014085
:100CB000F948006840F00100F749086008464068BC
:100CC000F6490840F449486008460068F44908407D
:100CD000F14908600846006820F480200860084652
:100CE0004068F0490840EC4948604FF46050C862E1
:100CF00000200864EC4888607047E749096821F4DF
:100D00008031E54A11601146096821F480211160A3
:100D1000B0F5803F05D11146096841F4803111607A
:100D200008E0B0F5802F05D1DB49096841F4A02126
:100D3000D94A116070470146002200234A11012A56
:100D400002D0022A06D102E0D348036805E0D24867
:100D5000036A02E0D048436A00BF00BF01F01F02EF
:100D600001209040184008B1012070470020FCE7A6
:100D7000F0B5002200BF002100250024C64E766891
:100D8000CA4F06EA0701C44E766806F4803501F0C2
:100D900000661EB9022606EB914104E04FF4F87696
:100DA000C6EB9146711C65B9BB4E366C06F0010668
:100DB0001EB1BF4E01FB06F30FE0BE4E01FB06F372
:100DC0000BE0B54E766806F400361EB1B84E01FB56
:100DD00006F302E0B74E01FB06F3AF4E766806F06D
:100DE0000C0222B1042A05D0082A08D105E0B14E30
:100DF000066007E0AF4E066004E0036002E0AD4E1F
:100E0000066000BF00BFA44E7668C6F30312AA4E68
:100E1000B45C0668E64046609F4E7668C6F30222E0
:100E2000A54EB45C4668E64086609B4E7668C6F385
:100E3000C222A14EB45C4668E640C660964EF66A91
:100E400006F00F029D4EB45C4668B6FBF4F64661B0
:100E5000914EF66AC6F3041202F00F06984F37F867
:100E60001640B3FBF4F60661F0BD30B587B0002044
:100E70000690002400256846FFF77AFF9149009804
:100E8000B1FBF0F04FF40051B1FBF0F400BF3120A2
:100E9000FFF751FF05460698401C06900698A042B1
:100EA00001D0002DF3D03120FFF745FF10B1012014
:100EB00007B030BD0020FBE701208349C8647047BC
:100EC00000208149C864704701460020724A1068BA
:100ED00020F0F80040EAC1001060704701207A4914
:100EE00008607047002078490860704730B587B0C7
:100EF00000200690002400256846FFF739FF71495D
:100F00000098B1FBF0F04FF40051B1FBF0F400BFDA
:100F10002120FFF710FF05460698401C0690069812
:100F2000A04201D0002DF3D02120FFF704FF10B123
:100F3000012007B030BD0020FBE710B50A460023B2
:100F4000554C6168236C574C214023F0010308B1D4
:100F5000012802D11143034302E040EA0204214385
:100F60004D4C6160236410BD0120574908667047ED
:100F7000002055490866704701460020464A5068DF
:100F800020F003000843506070474348406800F079
:100F90000C007047014600203F4A506820F0F000E6
:100FA000084350607047014600203B4A506820F4D7
:100FB000E06008435060704701460020364A5068A0
:100FC00020F4605040EAC10050607047324989689F
:100FD0000143314A916070472F49896881432E4A05
:100FE00091607047014600202B4AD06A20F00050E3
:100FF0000843D062704702460020274BD86A20F48D
:10100000806020F4784010430843D862704701465E
:101010000020214AD06A20F4F8700843D06270475B
:101020001D48C06A20F480701B49C86270470146A1
:101030000020194AD06A20F00F000843D0627047A0
:1010400015488030006840F001001349C1F8800065
:10105000704711488030006820F001000E49C1F847
:10106000800070470021194A11696FF30801B0F53B
:10107000007F02DB40F2FF1001E0C0F3080040F403
:1010800080621143114A116170470349C9690143E4
:10109000014AD16170470000001002400CC07FF887
:1010A000FFFFF6FEFFFFC0F700009F0400003C08B2
:1010B00000093D0000127A00DA150008EA15000860
:1010C000FA1500080020A10700004242007000400D
:1010D00010B504460B464FF08050FFF7D6FFA248EC
:1010E000006840F48070A0490860A048006A20F0C1
:1010F00005009E490862012C02D0042C11D109E0A0
:101100009A48006A40F00100984908621846FFF7C3
:10111000A9FF07E09548006A40F00500934908627E
:1011200000E000BF00BF10BD01209149086070477A
:1011300000208F49086070478C48006A00F010005A
:1011400008B1012070470020FCE730B587B00020CF
:101150000690002400256846FFF70AFE854900989E
:10116000B1FBF0F04FF40051B1FBF0F400BF4120AF
:10117000FFF7E1FD05460698401C06900698A04240
:1011800001D0002DF3D04120FFF7D5FD10B1012093
:1011900007B030BD0020FBE70120754974310860BD
:1011A00070470020724974310860704730B587B0CD
:1011B00000200690002400256846FFF7D9FD6D4900
:1011C0000098B1FBF0F04FF40051B1FBF0F400BF18
:1011D0006120FFF7B0FD05460698401C0690069872
:1011E000A04201D0002DF3D06120FFF7A4FD10B183
:1011F000012007B030BD0020FBE75C49096A21F4FB
:1012000040715A4A11621146096A014311627047DE
:10121000012057493031086070470020544930316F
:101220000860704700B503464FF08050FFF72DFF70
:101230004D48006840F480704B4908604B48406B53
:1012400020F00700494948630846406B184348634B
:1012500000BD4648406B40F48060444948630846FE
:10126000406B20F48060486370474048406B40F01A
:1012700040003E49486370473C48406B20F04000C6
:101280003A4948637047394949690143374A5161CE
:101290007047364949698143344A5161704733493F
:1012A00089690143314A91617047304989698143B5
:1012B0002E4A916170472D49C96981432B4AD161FA
:1012C00070472A49896A0143284A91621146896A0E
:1012D0008143916270472549C9680143234AD1601F
:1012E0001146C9688143D1607047204909690143AB
:1012F0001E4A11611146096981431161704701203D
:101300001B49343108600020086070470146002006
:10131000164A506820F070400843506070470146FC
:101320000020124A506820F0F06008435060704777
:101330000E48406A40F080700C4948620846406A96
:1013400020F0807048627047014608488068084075
:1013500008B1012070470020FCE704498968014377
:10136000024A916070470000007000400010024087
:101370000C0442420020A10740F28221174800F0ED
:101380002FF840F28221154800F069F84FF42071DF
:10139000124800F05CF84FF47A7000F0CAF81CE0D4
:1013A00002200E491831086080210C4800F047F8EF
:1013B0004FF4FA7000F0BDF84FF40071074800F0E8
:1013C0003EF84FF4FA7000F0B4F8022003492831D7
:1013D00008604FF4FA7000F0ACF8E1E70034024026
:1013E00030B587B004460D462148844203D18020A1
:1013F000FFF749FF11E01F48844203D18015FFF732
:1014000042FF0AE01C48844203D14015FFF73BFF2E
:1014100003E04FF48060FFF736FF4FF6FF70854220
:101420000BDA01A8FFF761FA019501200290022072
:10143000059001A92046FFF728FA07B030BD70B526
:1014400004460D4629462046FFF77FFA70BD70B569
:1014500004460D4629462046FFF76BFA70BD70B56D
:1014600004460D4629462046FFF765FA70BD000088
:101470000034024000380240003C0240704700BF88
:10148000FEE700BFFEE700BFFEE700BFFEE77047D4
:101490007047704730B50146B1F1807F01D301201C
:1014A00030BD21F07F40401E4FF0E02250615017C8
:1014B0000F22002804DB13071C0E304B1C5406E0DF
:1014C00013071D0E2E4B00F00F04241F1D5500BFE7
:1014D00000204FF0E0229061052010611046006965
:1014E00020F0020010610020DAE731B586B06846CE
:1014F000FFF73EFC23490098B0FBF1F52846FFF7C3
:10150000C9FF002408E000BF4FF0E020006900F4AC
:1015100080300028F8D0641C06988442F3D34FF042
:10152000E020006920F001004FF0E021086107B0E1
:1015300030BD31B586B06846FFF71AFC4FF47A71BA
:101540000098B0FBF1F52846FFF7A4FF002408E05F
:1015500000BF4FF0E020006900F480300028F8D090
:10156000641C06988442F3D34FF0E020006920F019
:1015700001004FF0E021086107B030BD00E400E059
:1015800018ED00E040420F00064C074D06E0E06811
:1015900040F0010394E8070098471034AC42F6D3BA
:1015A000FEF7BCFD1C1600083C16000802E008C847
:1015B000121F08C1002AFAD170477047002001E0CD
:1015C00001C1121F002AFBD170470000000000007B
:1015D00000000102030406070809000000000102E0
:1015E0000304010203040607080901020406080AAD
:1015F0000C102020202020202020010002000400C8
:10160000060008000A000C001000200040008000C6
:101610000001000100010001000100003C1600086B
:101620000000002004000000AC150008401600086F
:101630000400002004150000BC1500080020A107CC
:0400000508000115D9
:00000001FF
